:100000000C9436010C9455010C9455010C94550137
:100010000C9455010C9455010C9455010C94550108
:100020000C9455010C9455010C9455010C945501F8
:100030000C9455010C949B070C9455010C9455019C
:100040000C9455010C9455010C9455010C945501D8
:100050000C9455010C9455010C9455010C945501C8
:100060000C9455010C9455010C9455010C945501B8
:100070000C9455010C9455010C9455010C945501A8
:100080000C9455010C9455010C945501000000008E
:100090000000005F00000007000700147F147F14B9
:1000A000242A7F2A122313086462364955225000FD
:1000B00005030000001C2241000041221C0014081E
:1000C0003E081408083E08080050300000080808E0
:1000D0000808006060000020100804023E514945F5
:1000E0003E00427F400042615149462141454B312B
:1000F0001814127F1027454545393C4A49493001BB
:10010000710905033649494936064949291E003611
:100110003600000056360000081422410014141462
:100120001414004122140802015109063249794190
:100130003E7E1111117E7F494949363E414141229F
:100140007F4141221C7F494949417F090909013EFC
:100150004149497A7F0808087F00417F41002040DB
:10016000413F017F081422417F404040407F020C04
:10017000027F7F0408107F3E4141413E7F0909090B
:10018000063E4151215E7F091929464649494931B8
:1001900001017F01013F4040403F1F2040201F3FA1
:1001A0004038403F63140814630708700807615122
:1001B000494543007F4141000204081020004141AD
:1001C0007F0004020102044040404040000102045C
:1001D0000020545454787F484444383844444420E0
:1001E000384444487F3854545418087E0901020C9E
:1001F0005252523E7F0804047800447D4000204063
:10020000443D007F1028440000417F40007C0418DA
:1002100004787C0804047838444444387C1414146A
:1002200008081414187C7C0804040848545454200A
:10023000043F4440203C4040207C1C2040201C3C8B
:100240004030403C44281028440C5050503C4464FA
:10025000544C44000836410000007F000000413645
:1002600008001008081008000000000011241FBE3C
:10027000CFEFD0E4DEBFCDBF12E0A0E0B1E0ECED07
:10028000F7E200E00BBF02C007900D92A036B10765
:10029000D9F724E0A0E6B2E001C01D92A13AB2076E
:1002A000E1F70E9408100C94EC130C940000CF931B
:1002B000DF93CDB7DEB781E00E947E010000DF91C1
:1002C000CF910895CF93DF93CDB7DEB784E690E06A
:1002D0000E94220288E30E947E0186E00E947E0145
:1002E0008FE00E947E0181E00E947E018AE090E022
:1002F0000E9422020000DF91CF910895CF93DF93F7
:100300001F92CDB7DEB789838BE290E02BE230E01D
:10031000F90120812F7BFC01208388E290E0298174
:10032000FC0120838BE290E02BE230E0F901208198
:100330002068FC01208300008BE290E02BE230E09B
:10034000F90120812F77FC01208382E090E00E9458
:10035000220200000F90DF91CF910895CF93DF9399
:100360001F92CDB7DEB789838BE290E02BE230E0BD
:10037000F90120812064FC01208388E290E029813A
:10038000FC0120838BE290E02BE230E0F901208138
:100390002068FC01208300008BE290E02BE230E03B
:1003A000F90120812F77FC01208381E090E00E94F9
:1003B000220200000F90DF91CF910895CF93DF9339
:1003C00000D000D0CDB7DEB78A837C836B830E94D8
:1003D00057018A81898311C0898191E0980F99839F
:1003E0000E940B028B819C819C012F5F3F4F3C83BD
:1003F0002B83FC0180810E94AE018B819C81FC01DA
:100400008081882349F700000F900F900F900F9084
:10041000DF91CF910895CF93DF931F92CDB7DEB7D1
:1004200089838981813128F4898181580E947E01E4
:1004300004C0898181550E947E0100000F90DF91E8
:10044000CF910895CF93DF9300D000D000D0CDB7E7
:10045000DEB79E838D831A82198213C01C821B8291
:1004600006C000008B819C8101969C838B838B81CD
:100470009C8187309340ACF389819A8101969A835D
:10048000898329813A818D819E812817390734F328
:10049000000026960FB6F894DEBF0FBECDBFDF91E9
:1004A000CF9108951F93CF93DF9300D0CDB7DEB7E0
:1004B00089836A8385E290E025E230E0F9012081BA
:1004C0002D7FFC0120838A81882351F085E290E012
:1004D00025E230E0F90120812860FC01208309C079
:1004E00085E290E025E230E0F9012081277FFC01E0
:1004F000208310E03CC08981882F90E0212F30E0DC
:1005000047E050E0BA01621B730B9B0102C0959556
:1005100087952A95E2F781709927892B51F085E21A
:1005200090E025E230E0F90120812061FC01208388
:1005300009C085E290E025E230E0F90120812F7EBC
:10054000FC01208385E290E025E230E0F901208182
:100550002062FC01208385E290E025E230E0F90191
:1005600020812F7DFC012083812F11E0180F18308E
:1005700010F285E290E025E230E0F901208122606E
:10058000FC01208300000F900F90DF91CF911F910D
:100590000895CF93DF931F92CDB7DEB7898360E0D4
:1005A00089810E94520200000F90DF91CF9108953F
:1005B000CF93DF931F92CDB7DEB7898361E0898146
:1005C0000E94520200000F90DF91CF9108950F9387
:1005D0001F93CF93DF93CDB7DEB76C970FB6F89428
:1005E000DEBF0FBECDBF84E290E024E230E0F9012F
:1005F00020812260FC01208384E290E024E230E04C
:10060000F90120812460FC01208384E290E024E24F
:1006100030E0F90120812860FC01208384E290E031
:1006200024E230E0F90120812061FC01208384E292
:1006300090E024E230E0F90120812062FC01208377
:1006400085E290E025E230E0F90120812460FC01A0
:10065000208385E290E025E230E0F90120812260EC
:10066000FC01208380E090E0A0E2B1E489839A83DA
:10067000AB83BC8320E030E04AE753E469817A81B0
:100680008B819C810E946913DC01CB018B8B9C8B3D
:10069000AD8BBE8B20E030E040E85FE36B897C8966
:1006A0008D899E890E94421288232CF481E090E07B
:1006B000988F8F8B3FC020E03FEF4FE757E46B8967
:1006C0007C898D899E890E94641318164CF520E060
:1006D00030E040E251E469817A818B819C810E9403
:1006E0006913DC01CB01BC01CD010E94C012DC0109
:1006F000CB01988F8F8B0FC089E190E09A8F898F03
:10070000898D9A8D0197F1F79A8F898F8F89988DAE
:100710000197988F8F8B8F89988D892B69F714C0DB
:100720006B897C898D899E890E94C012DC01CB0176
:10073000988F8F8B8F89988D9C8F8B8F8B8D9C8DB5
:100740000197F1F79C8F8B8F85E290E025E230E0F6
:10075000F90120812B7FFC01208380E090E0ACE850
:10076000B2E48D839E83AF83B88720E030E04AE710
:1007700053E46D817E818F8198850E946913DC012D
:10078000CB0189879A87AB87BC8720E030E040E8BF
:100790005FE369857A858B859C850E944212882358
:1007A0002CF481E090E09E878D873FC020E03FEFF2
:1007B0004FE757E469857A858B859C850E94641391
:1007C00018164CF520E030E040E251E46D817E8166
:1007D0008F8198850E946913DC01CB01BC01CD019A
:1007E0000E94C012DC01CB019E878D870FC089E17A
:1007F00090E0988B8F878F8598890197F1F7988B78
:100800008F878D859E8501979E878D878D859E8597
:10081000892B69F714C069857A858B859C850E9430
:10082000C012DC01CB019E878D878D859E859A8BBA
:10083000898B89899A890197F1F79A8B898B85E24F
:1008400090E025E230E0F90120812460FC01208362
:1008500085E290E025E230E0F90120812D7FFC0166
:10086000208381E20E94C90283E10E94C90286E0DE
:100870000E94C90282EC0E94C90280E20E94C90261
:1008800089E00E94C90280E80E94C90280E40E94B7
:10089000C90200E010E005C080E00E94D8020F5FAE
:1008A0001F4F083FF1E01F07B8F388E00E94C9021C
:1008B0008CE00E94C90200006C960FB6F894DEBF6F
:1008C0000FBECDBFDF91CF911F910F9108950F9370
:1008D0001F93CF93DF93CDB7DEB780E80E94C902A4
:1008E00080E40E94C902109258041092590400E05A
:1008F00010E007C0C801805A9D4FFC0110820F5FB5
:100900001F4F083FF1E01F07A8F30000DF91CF91D0
:100910001F910F910895CF93DF931F92CDB7DEB74C
:1009200089838981882311F080E201C084E20E94DA
:10093000C90200000F90DF91CF910895CF93DF930C
:1009400000D000D01F92CDB7DEB78B836C834D8370
:100950008C81869586958695882F90E044E5489F02
:100960009001499F300D11248B81882F90E0820FD8
:10097000931F805A9D4F9A8389838D818823C9F064
:1009800089819A81FC018081482F8C81882F90E099
:100990009C012770332781E090E002C0880F991FE7
:1009A0002A95E2F7842B282F89819A81FC012083E4
:1009B00019C089819A81FC018081482F8C81882F00
:1009C00090E09C012770332781E090E002C0880FFF
:1009D000991F2A95E2F780958423282F89819A818F
:1009E000FC01208300000F900F900F900F900F904C
:1009F000DF91CF9108950F931F93CF93DF9300D092
:100A000000D01F92CDB7DEB78C836D8300E066C047
:100A100010E04FC08C81082E000C990B9C012052D5
:100A200031099D81802F692F0E943612482F50E096
:100A3000C901880F991F880F991F820F931F840F78
:100A4000951F84579F4F9A83898389819A81FC01DE
:100A500084918B838B81282F30E09D81812F692F9A
:100A60000E943612882F90E0A90102C05595479543
:100A70008A95E2F7CA0181709927892B61F08091EC
:100A80005904982F910F80915804800F41E0692FED
:100A90000E949E040BC080915904982F910F809161
:100AA0005804800F40E0692F0E949E04812F11E0BE
:100AB000180F412F50E08D81282F30E0C901880F99
:100AC000991F880F991F880F991F821B930B481736
:100AD00059070CF49FCF802F01E0080F402F50E002
:100AE0008D81282F30E0C901880F991F880F991F29
:100AF000820F931F481759070CF48ACF209158048E
:100B00009D81892F880F880F890F820F8093580449
:100B100010E00DC080915904982F910F80915804D6
:100B200040E0692F0E949E04812F11E0180F412F91
:100B300050E08D81282F30E0C901880F991F880F60
:100B4000991F880F991F821B930B4817590714F39D
:100B5000809158048F5F80935804809158048435A5
:100B600070F010925804209159049D81892F880FAC
:100B7000880F880F891B820F8F5F809359048091A3
:100B80005904803320F01092580410925904000048
:100B90000F900F900F900F900F90DF91CF911F91BA
:100BA0000F910895CF93DF9300D01F92CDB7DEB79A
:100BB0009A8389836B830CC089819A819C012F5F02
:100BC0003F4F3A832983FC0180816B810E94FB04A3
:100BD00089819A81FC018081882371F700000F9040
:100BE0000F900F90DF91CF910895CF93DF9300D0B6
:100BF000CDB7DEB789836A838981809358048A815F
:100C00008093590400000F900F90DF91CF910895C9
:100C10000F931F93CF93DF93CDB7DEB780E80E9489
:100C2000C90280E40E94C90200E010E009C0C801C6
:100C3000805A9D4FFC0180810E94D8020F5F1F4F98
:100C4000083FF1E01F0798F30000DF91CF911F915B
:100C50000F9108950F931F93CF93DF9300D000D08F
:100C60001F92CDB7DEB78C836D8300E066C010E0C5
:100C70004FC08C81082E000C990B9C012052310929
:100C80009D81802F692F0E943612482F50E0C901A4
:100C9000880F991F880F991F820F931F840F951F2C
:100CA00084579F4F9A83898389819A81FC0184911B
:100CB0008B838B81282F30E09D81812F692F0E94AB
:100CC0003612882F90E0A90102C0559547958A9564
:100CD000E2F7CA0181709927892B61F0809159044C
:100CE000982F910F80915804800F40E0692F0E9447
:100CF0009E040BC080915904982F910F8091580445
:100D0000800F41E0692F0E949E04812F11E0180F8F
:100D1000412F50E08D81282F30E0C901880F991FA5
:100D2000880F991F880F991F821B930B481759072B
:100D30000CF49FCF802F01E0080F402F50E08D81F1
:100D4000282F30E0C901880F991F880F991F820F43
:100D5000931F481759070CF48ACF209158049D819E
:100D6000892F880F880F890F820F8093580410E015
:100D70000DC080915904982F910F8091580441E043
:100D8000692F0E949E04812F11E0180F412F50E01F
:100D90008D81282F30E0C901880F991F880F991F76
:100DA000880F991F821B930B4817590714F38091E2
:100DB00058048F5F8093580480915804843570F0F4
:100DC00010925804209159049D81892F880F880F13
:100DD000880F891B820F8F5F80935904809159047B
:100DE000803320F0109258041092590400000F90A4
:100DF0000F900F900F900F90DF91CF911F910F9157
:100E00000895CF93DF9300D01F92CDB7DEB79A83BA
:100E100089836B830CC089819A819C012F5F3F4F2E
:100E20003A832983FC0180816B810E942A06898193
:100E30009A81FC018081882371F700000F900F9048
:100E40000F90DF91CF910895CF93DF9300D01F9241
:100E5000CDB7DEB789837B836A8389818A3031F499
:100E60008A819B81BC018DE00E94240780EC90E088
:100E7000FC018081882F90E080729927892BB1F343
:100E800086EC90E02981FC01208380E090E00F90C7
:100E90000F900F90DF91CF910895CF93DF93CDB74F
:100EA000DEB781E890E02BE0FC01208388E890E049
:100EB0002DE730E0FC01318320838FE690E022E0D3
:100EC000FC01208384E890E0FC0111821082809173
:100ED0000E0190910F01A0911001B091110180932A
:100EE0005B0490935C04A0935D04B0935E048FE573
:100EF00090E02FE530E0F90120812068FC0120839B
:100F00000000DF91CF910895CF93DF93CDB7DEB787
:100F100081E890E0FC0110820000DF91CF910895FC
:100F2000CF93DF93CDB7DEB781E080935A04000002
:100F3000DF91CF9108951F920F9200905F000F9262
:100F4000112400905B000F922F933F934F935F9378
:100F50006F937F938F939F93AF93BF93EF93FF9381
:100F6000CF93DF93CDB7DEB780915B0490915C04A3
:100F7000A0915D04B0915E040197A109B10980932D
:100F80005B0490935C04A0935D04B0935E04809135
:100F90005B0490915C04A0915D04B0915E04892B88
:100FA0008A2B8B2B91F40E94900780910E019091D7
:100FB0000F01A0911001B091110180935B049093F7
:100FC0005C04A0935D04B0935E040000DF91CF91B8
:100FD000FF91EF91BF91AF919F918F917F916F9111
:100FE0005F914F913F912F910F9000925B000F9076
:100FF00000925F000F901F901895CF93DF9300D061
:1010000000D0CDB7DEB769837A838B839C838981D7
:101010009A81AB81BC8180930E0190930F01A093C4
:101020001001B093110180910E0190910F01A091D8
:101030001001B091110180935B0490935C04A09324
:101040005D04B0935E0400000F900F900F900F901E
:10105000DF91CF9108950F931F93CF93DF9300D02B
:1010600000D0CDB7DEB769837A838B839C83809170
:10107000650490916604A0916704B09168049C0196
:10108000AD0169817A818B819C810E944212882303
:1010900009F477C020E030E0A90169817A818B8171
:1010A0009C810E944212882351F481E990E021E959
:1010B00030E0F90120812870FC01208309C081E91A
:1010C00090E021E930E0F90120812360FC012083D8
:1010D00028E539E344E75FE369817A818B819C816C
:1010E0000E944212882344F488E990E02FEF3FEFFA
:1010F000FC013183208334C020E034E244EF56E425
:1011000069817A818B819C810E946413181634F462
:1011100088E990E0FC011182108222C008E910E009
:1011200020E030E040E053E469817A818B819C814A
:101130000E946913DC01CB019C01AD0160E074E207
:1011400084EF9AE40E944712DC01CB01BC01CD017F
:101150000E94B912DC01CB010197F80191838083D1
:1011600084E990E0FC011182108289819A81AB812F
:10117000BC818093650490936604A0936704B09348
:10118000680400000F900F900F900F90DF91CF91A7
:101190001F910F910895CF93DF93CDB7DEB780E90C
:1011A00090E020E4FC01208381E990E02BE0FC0149
:1011B000208360E070E0CB010E942B080000DF91EB
:1011C000CF910895CF93DF93CDB7DEB780E990E05C
:1011D000FC01108281E990E0FC0110820000DF91A7
:1011E000CF910895CF93DF93CDB7DEB78AE790E034
:1011F0002AE730E0F9012081206EFC012083000005
:10120000DF91CF910895CF93DF931F92CDB7DEB7D3
:10121000898389818F7089838981882319F08981E5
:10122000813031F48CE790E02981FC01208308C0F3
:101230008CE790E02CE730E0F9012081FC0120836D
:1012400001C000008AE790E0FC018081882F90E0D7
:1012500080719927892BA9F388E790E0FC018081B0
:1012600091810F90DF91CF910895CF93DF9300D0BC
:101270001F92CDB7DEB79B838A8380E290E0FC01AA
:1012800080818095887089838A819B8181309105D6
:1012900009F440C082309105D9F0892B09F050C083
:1012A00010925F041092600480915F04882F90E098
:1012B000880F991F8F569E4FFC01808191819093DA
:1012C0009C0480939B0482E090E09B838A8338C0D7
:1012D00089818823D1F0809114018130B1F480910B
:1012E0005F04882F90E0880F991F8F569E4FFC0156
:1012F0008081918190939C0480939B041092600460
:1013000081E090E09B838A831BC082E090E09B8316
:101310008A8316C080915F04882F90E083569E4F89
:10132000FC01908180916004891728F481E090E0AD
:101330009B838A8304C082E090E09B838A830000C1
:101340008A819B818130910531F082309105F9F0DD
:10135000892BF9F01FC080919B0490919C04FC01A3
:1013600080819181A281B381BC01CD010E942B08B3
:1013700080919B0490919C04049690939C0480938C
:101380009B04809160048F5F8093600403C0000021
:1013900001C000008A819B810F900F900F90DF9118
:1013A000CF910895CF93DF9300D000D000D0CDB778
:1013B000DEB79E838D838D819E818130910509F4F6
:1013C0004EC08230910509F446C1892B09F05EC1F7
:1013D00010929A0410929F041092A0041092950407
:1013E0000E94670460E080E00E94F50561E083EC04
:1013F00091E00E9401076AE080E00E94F50561E04B
:1014000081ED91E00E94010764E180E00E94F50512
:1014100061E08FED91E00E9401076EE180E00E94A3
:10142000F50561E08DEE91E00E94010768E280E041
:101430000E94F50561E08BEF91E00E94010760E0FA
:1014400080E00E94F50561E081E092E00E94D20513
:101450000E94080681E090E09E838D831CC18091EC
:101460001401882329F481E090E09E838D8313C1C9
:101470008091A004882349F480919504882329F45D
:1014800081E090E09E838D8306C180E28983809114
:101490009F04282F30E080919A04482F50E0C90122
:1014A000880F991F820F931F880F991F840F951F14
:1014B0008D559E4FFC0180818A8380E28B831C8244
:1014C00080919F04880F982F990F990F282F290F2B
:1014D00090919A04892F880F890F880F880F622FA7
:1014E0000E94F50561E0CE0101960E9401078091FE
:1014F000A004882399F580919504882309F477C086
:1015000080919504813061F480919F04882321F0BB
:1015100080919F04815001C080E080939F0467C048
:10152000809195048230A1F480919F04843009F465
:101530005EC080919F04833029F480919A048230A8
:1015400008F055C080919F048F5F80939F044FC027
:1015500061E085E092E00E94D20549C08091A0043C
:10156000813031F5809195048823E1F480919F04C6
:10157000843061F480919A04813021F080919A0442
:101580008F5F01C081E080939A0431C080919A04FA
:10159000853021F080919A048F5F01C085E08093AF
:1015A0009A0425C061E085E092E00E94D2051FC048
:1015B0008091A0048230B1F480919504882361F475
:1015C00080919A04882321F080919A04815001C06F
:1015D00080E080939A040BC061E085E092E00E9475
:1015E000D20505C061E080E192E00E94D2058091C1
:1015F0009F04282F30E080919A04482F50E0C901C1
:10160000880F991F820F931F880F991F840F951FB2
:101610008D559E4FFC0180818A8380919F04880FA5
:10162000982F990F990F282F290F90919A04892F9D
:10163000880F890F880F880F622F0E94F50561E0DF
:10164000CE0101960E94D2050E94080682E090E039
:101650009E838D8320C080911401882329F481E02A
:1016600090E09E838D8317C08091A004882349F465
:1016700080919504882329F481E090E09E838D83F6
:101680000AC082E090E09E838D8305C081E090E0F7
:101690009E838D8300008D819E81009709F4B7C0E1
:1016A00099230CF4B6C003970CF0B3C01092A004B9
:1016B0001092950481E00E94030990939E04809308
:1016C0009D0480919D0490919E048F339240B0F0D0
:1016D00082E0809395048BE290E02BE230E0F90108
:1016E0002081277FFC0120838BE290E02BE230E019
:1016F000F90120812460FC01208328C080919D0491
:1017000090919E048D309240B0F481E080939504D6
:101710008BE290E02BE230E0F90120812B7FFC018D
:1017200020838BE290E02BE230E0F90120812860F9
:10173000FC0120830BC0109295048BE290E02BE219
:1017400030E0F9012081237FFC01208380E00E94AA
:101750000309909399048093980480919804909140
:10176000990480349240B0F081E08093A0048BE231
:1017700090E02BE230E0F90120812D7FFC012083F5
:101780008BE290E02BE230E0F90120812160FC0146
:10179000208328C080919804909199048D309240C4
:1017A000B0F482E08093A0048BE290E02BE230E082
:1017B000F90120812E7FFC0120838BE290E02BE257
:1017C00030E0F90120812260FC0120830BC01092DF
:1017D000A0048BE290E02BE230E0F90120812C7F25
:1017E000FC01208380919504882321F08091A0043E
:1017F000882381F080919504882321F48091A004AE
:10180000882341F4109295041092A00403C00000B4
:1018100001C000008D819E8126960FB6F894DEBF30
:101820000FBECDBFDF91CF910895CF93DF93CDB79A
:10183000DEB72B970FB6F894DEBF0FBECDBF9B87E8
:101840008A8780E290E0FC018081809584708983A2
:1018500080E290E0FC018081809580718A8380E243
:1018600090E0FC018081809580728B8386E0EBE1C3
:10187000F2E0DE01149601900D928A95E1F78A85D7
:101880009B858230910509F44BC0833091052CF47F
:10189000009771F00197C9F0CAC08430910509F42E
:1018A000B0C08430910534F1059709F48DC0BFC0F4
:1018B00083E08093C10181E080931401109296042B
:1018C00081E090E09B878A87B2C08A81882329F0D3
:1018D00083E090E09B878A87AAC08981882329F0CA
:1018E00082E090E09B878A87A2C081E090E09B879E
:1018F0008A879DC08A81882329F083E090E09B87B6
:101900008A8795C083E08093C10110926104109290
:101910005F041092600481E090E09B878A8787C013
:101920008981882329F082E090E09B878A877FC0A5
:1019300080919F04282F30E080919A04482F50E036
:10194000C901880F991F820F931F880F991F840F59
:10195000951F8D559E4FFC01408180915F04882F1B
:1019600090E09E012C5F3F4F820F931FFC0180810E
:101970004817A9F4809161048F5F8093610480917E
:101980005F04853021F080915F048F5F01C080E0AB
:1019900080935F0481E090E09B878A8748C08091B4
:1019A000C10181508093C1018091C101882339F424
:1019B0001092C10185E090E09B878A8738C081E062
:1019C00090E09B878A8733C0109214018B81882313
:1019D00041F081E08093960484E090E09B878A87C1
:1019E00026C08A81882341F081E08093140183E03E
:1019F00090E09B878A871BC085E090E09B878A8761
:101A000016C08B81882329F084E090E09B878A8729
:101A10000DC0809112019091130160E00E94DE13CD
:101A200085E090E09B878A871092960400008A8563
:101A30009B852B960FB6F894DEBF0FBECDBFDF910E
:101A4000CF910895CF93DF9300D0CDB7DEB79A83BF
:101A5000898389819A818130910509F409C1823095
:101A6000910541F0892B09F0F2C182E090E09A8360
:101A70008983F5C180911401813029F482E090E0DE
:101A80009A838983E9C180911401882309F0E4C114
:101A900080911201909113010E94D61380936304E8
:101AA0009091610480916304891768F42091610426
:101AB0008091120190911301622F0E94DE13809198
:101AC0006104809363040E94570161E272E082E046
:101AD0000E94DE0181E00E940B0283E090E00E9400
:101AE000AE018EE00E940B02909163048DEC989FF2
:101AF000812D1124869586958695880F282F220F93
:101B0000220F820F292F281B822F882F90E0C0964A
:101B10000E94AE01909163048DEC989F812D112459
:101B2000869586958695809363048DE00E940B02CE
:101B3000909163048DEC989F812D11248695869554
:101B40008695880F282F220F220F820F292F281BFE
:101B5000822F882F90E0C0960E94AE01909163047E
:101B60008DEC989F812D112486958695869580937E
:101B700063048CE00E940B02909163048DEC989FAB
:101B8000812D1124869586958695880F282F220F02
:101B9000220F820F292F281B822F882F90E0C096BA
:101BA0000E94AE0189E10E940B02909161048DECCC
:101BB000989F812D1124869586958695880F282FCC
:101BC000220F220F820F292F281B822F882F90E0AF
:101BD000C0960E94AE01909161048DEC989F812D7A
:101BE00011248695869586958093610488E10E94EC
:101BF0000B02909161048DEC989F812D11248695A4
:101C000086958695880F282F220F220F820F292F65
:101C1000281B822F882F90E0C0960E94AE019091E1
:101C200061048DEC989F812D11248695869586956B
:101C30008093610487E10E940B02909161048DEC16
:101C4000989F812D1124869586958695880F282F3B
:101C5000220F220F820F292F281B822F882F90E01E
:101C6000C0960E94AE0181E090E09A838983F4C01F
:101C700080919604813009F0D8C00E94570161E23A
:101C800072E082E00E94DE0181E00E940B0283E0AC
:101C900090E00E94AE018CE00E940B0290916304E0
:101CA0008DEC989F812D1124869586958695880FB9
:101CB000282F220F220F820F292F281B822F882FD7
:101CC00090E0C0960E94AE01909163048DEC989FC5
:101CD000812D1124869586958695809363048DE0E9
:101CE0000E940B02909163048DEC989F812D11242A
:101CF000869586958695880F282F220F220F820FB2
:101D0000292F281B822F882F90E0C0960E94AE01B9
:101D1000909163048DEC989F812D11248695869572
:101D20008695809363048EE00E940B029091630479
:101D30008DEC989F812D1124869586958695880F28
:101D4000282F220F220F820F292F281B822F882F46
:101D500090E0C0960E94AE0187E10E940B02909134
:101D600061048DEC989F812D11248695869586952A
:101D7000880F282F220F220F820F292F281B822F36
:101D8000882F90E0C0960E94AE01909161048DEC86
:101D9000989F812D11248695869586958093610460
:101DA00088E10E940B02909161048DEC989F812D37
:101DB0001124869586958695880F282F220F220F4D
:101DC000820F292F281B822F882F90E0C0960E9417
:101DD000AE01909161048DEC989F812D1124869520
:101DE000869586958093610489E10E940B0290910B
:101DF00061048DEC989F812D11248695869586959A
:101E0000880F282F220F220F820F292F281B822FA5
:101E1000882F90E0C0960E94AE018AE10E940B02DA
:101E200081E090E09A83898319C080911401813008
:101E300029F482E090E09A83898310C08091140194
:101E4000882361F481E090E09A83898307C082E06F
:101E500090E09A83898303C0000001C0000089815B
:101E60009A818130910509F4C7C08230910521F033
:101E7000892B09F4C3C0C5C0909162048091C1014F
:101E8000981701F18091C101809362040E9457016B
:101E9000109297040EC0809197048F5F0E940B02EE
:101EA00082E090E00E94AE01809197048F5F809362
:101EB0009704909197048091C101981760F381E095
:101EC000809364049091C20180916104981729F471
:101ED00080916404882309F493C080916104809305
:101EE000C2011092640480915F04882F90E08230D8
:101EF000910599F0833091052CF4009771F00197CA
:101F000011F179C08430910509F449C084309105FC
:101F100084F1059709F459C06EC081E10E940B025B
:101F200084E090E00E94AE0182E10E940B0284E016
:101F300090E00E94AE0183E10E940B0284E090E0F9
:101F40000E94AE0158C081E10E940B0285E090E042
:101F50000E94AE0182E10E940B0285E090E00E94A7
:101F6000AE0183E10E940B0285E090E00E94AE0189
:101F700042C081E10E940B0284E090E00E94AE0129
:101F800082E10E940B0285E090E00E94AE0183E1B5
:101F90000E940B0280E290E00E94AE012CC081E121
:101FA0000E940B0284E090E00E94AE0182E10E9458
:101FB0000B0280E290E00E94AE0183E10E940B02DE
:101FC00080E290E00E94AE0116C081E10E940B0207
:101FD00085E090E00E94AE0182E10E940B0280E267
:101FE00090E00E94AE0183E10E940B0280E290E04B
:101FF0000E94AE01000004C0000003C0000001C048
:10200000000089819A810F900F90DF91CF91089500
:102010000F931F93CF93DF93CDB7DEB7AE970FB675
:10202000F894DEBF0FBECDBF81E290E0FC011082CC
:1020300082E290E02FEFFC01208384E290E02FEF1A
:10204000FC01208385E290E0FC01108287E290E0B1
:102050002FEFFC01208388E290E0FC0110828AE2ED
:1020600090E02FEFFC0120838BE290E0FC011082D6
:1020700088E0E8E3F2E0DE01179601900D928A9580
:10208000E1F784E090E09D838C838AE08E8388E092
:10209000E0E4F2E0DE011F9601900D928A95E1F7EF
:1020A00080E50E947E01198211C08981882F90E00D
:1020B0009E01215F3F4F820F931FFC018081882F7B
:1020C00090E00E94AE0189818F5F89838981883089
:1020D00060F380E80E947E0188E0E8E4F2E0DE013F
:1020E000579601900D928A95E1F788E50E947E014E
:1020F000198211C08981882F90E09E01295E3F4F8F
:10210000820F931FFC018081882F90E00E94AE0116
:1021100089818F5F89838981883060F380E80E949C
:102120007E0188E0E0E5F2E0DE015F9601900D922D
:102130008A95E1F780E60E947E01198211C08981AB
:10214000882F90E09E01215E3F4F820F931FFC017C
:102150008081882F90E00E94AE0189818F5F898302
:102160008981883060F380E80E947E0188E0E8E59C
:10217000F2E0DE01979601900D928A95E1F788E6EC
:102180000E947E01198211C08981882F90E09E01F2
:10219000295D3F4F820F931FFC018081882F90E0C3
:1021A0000E94AE0189818F5F89838981883060F3C5
:1021B00080E80E947E018E81082E000C990BAA0BEC
:1021C000BB0BBC01CD010E94FD070E944D070E9480
:1021D00062010E94F2080E94E7020E9467040E94C6
:1021E000CB081092690484E690E0A0E0B0E0809310
:1021F0006A0490936B04A0936C04B0936D04809177
:102200006A0490916B04A0916C04B0916D0480936A
:102210006E0490936F04A0937004B093710485E3EF
:1022200099E090937304809372041092740484E68E
:1022300090E0A0E0B0E08093750490937604A093C2
:102240007704B09378048091750490917604A091FE
:102250007704B09178048093790490937A04A093E2
:102260007B04B0937C0482ED99E090937E0480938C
:102270007D0410927F048AE090E0A0E0B0E08093BB
:10228000800490938104A0938204B093830480918E
:10229000800490918104A0918204B0918304809382
:1022A000840490938504A0938604B093870485E109
:1022B0009CE0909389048093880410928A048AE0B9
:1022C00090E0A0E0B0E080938B0490938C04A09306
:1022D0008D04B0938E0480918B0490918C04A09116
:1022E0008D04B0918E0480938F0490939004A093FA
:1022F0009104B093920482E29DE0909394048093C1
:1023000093041B821A82A2C08A819B81880F991F25
:102310009E012F5F3F4F820F931F0696FC01808125
:102320009181FC0125813681478150858A819B817D
:10233000880F991FBE016F5F7F4F860F971F06960C
:10234000FC0180819181FC0181819281A381B48112
:10235000281739074A075B0709F045C08A819B8126
:10236000880F991F9E012F5F3F4F820F931F069684
:10237000FC01008111818A819B81880F991F9E0138
:102380002F5F3F4F820F931F0696FC018081918142
:10239000FC01218532858A819B81880F991FAE01BE
:1023A0004F5F5F4F840F951F0696FC0180819181DE
:1023B000FC018081082E000C990BF9010995F801A8
:1023C00080838A819B81880F991F9E012F5F3F4FD9
:1023D000820F931F0696FC0180819181FC0115827A
:1023E0001682178210868A819B81880F991F9E0111
:1023F0002F5F3F4F820F931F0696FC016081718112
:102400008A819B81880F991F9E012F5F3F4F820F0A
:10241000931F0696FC0180819181FC012581368104
:10242000478150858E81082E000C990BAA0BBB0B9F
:10243000820F931FA41FB51FFB0185839683A7837B
:10244000B0878A819B8101969B838A832A813B8105
:102450008C819D812817390708F456CF00008091A0
:102460005A048823E1F310925A044BCF991B79E068
:1024700004C0991F961708F0961B881F7A95C9F714
:10248000809508950E94EF1208F481E008950E945B
:102490005B120C942A130E94231358F00E941C1301
:1024A00040F029F45F3F29F00C94131351110C9460
:1024B0005E130C9419130E943B1368F39923B1F334
:1024C000552391F3951B550BBB27AA27621773075A
:1024D000840738F09F5F5F4F220F331F441FAA1FEE
:1024E000A9F335D00E2E3AF0E0E832D091505040AA
:1024F000E695001CCAF72BD0FE2F29D0660F771F58
:10250000881FBB1F261737074807AB07B0E809F03D
:10251000BB0B802DBF01FF2793585F4F3AF09E3FC2
:10252000510578F00C9413130C945E135F3FE4F3A1
:10253000983ED4F3869577956795B795F7959F5F05
:10254000C9F7880F911D9695879597F90895E1E051
:10255000660F771F881FBB1F621773078407BA07B0
:1025600020F0621B730B840BBA0BEE1F88F7E0950B
:1025700008950E94C0126894B1110C945E130895DE
:102580000E94431388F09F5798F0B92F9927B751AD
:10259000B0F0E1F0660F771F881F991F1AF0BA9507
:1025A000C9F714C0B13091F00E945D13B1E00895F5
:1025B0000C945D13672F782F8827B85F39F0B93FE7
:1025C000CCF3869577956795B395D9F73EF49095BA
:1025D0008095709561957F4F8F4F9F4F0895990F0C
:1025E0000008550FAA0BE0E8FEEF16161706E807DD
:1025F000F907C0F012161306E407F50798F0621BFE
:10260000730B840B950B39F40A2661F0232B242BD2
:10261000252B21F408950A2609F4A140A6958FEFF1
:10262000811D811D089597F99F6780E870E060E043
:1026300008959FEF80EC089500240A94161617065B
:1026400018060906089500240A94121613061406A3
:1026500005060895092E0394000C11F4882352F006
:10266000BB0F40F4BF2B11F460FF04C06F5F7F4FBE
:102670008F4F9F4F089557FD9058440F551F59F0A5
:102680005F3F71F04795880F97FB991F61F09F3F5F
:1026900079F087950895121613061406551FF2CF88
:1026A0004695F1DF08C0161617061806991FF1CFD8
:1026B00086957105610508940895E894BB276627FF
:1026C0007727CB0197F908950E94EF1208F48FEF56
:1026D00008950E947C130C942A130E941C1338F056
:1026E0000E94231320F0952311F00C9413130C94E3
:1026F000191311240C945E130E943B1370F3959FE1
:10270000C1F3950F50E0551F629FF001729FBB27E8
:10271000F00DB11D639FAA27F00DB11DAA1F649F84
:102720006627B00DA11D661F829F2227B00DA11D37
:10273000621F739FB00DA11D621F839FA00D611DBD
:10274000221F749F3327A00D611D231F849F600DDE
:10275000211D822F762F6A2F11249F5750409AF007
:10276000F1F088234AF0EE0FFF1FBB1F661F771F93
:10277000881F91505040A9F79E3F510580F00C945E
:1027800013130C945E135F3FE4F3983ED4F38695E5
:1027900077956795B795F795E7959F5FC1F7FE2BFE
:1027A000880F911D9695879597F90895F999FECF11
:1027B00092BD81BDF89A992780B50895262FF99981
:1027C000FECF1FBA92BD81BD20BD0FB6F894FA9A14
:0C27D000F99A0FBE01960895F894FFCF0F
:1027DC0000000002000000002407000000000100BF
:1027EC0000001A00010000DC43000000000000DCC7
:1027FC0043000000000000DC43000000000000DC8F
:10280C00430000DC43000000000000DC430000DC5F
:10281C0043000000000000DC430000DC430000002B
:10282C00000000DC43000000000000DC430000005E
:10283C00000000DC43000000000000DC430000004E
:10284C00000000DC430000DC43000000000000DC62
:10285C0043000000000000DC430000DC43000000EB
:10286C000015012D01510169017D01850106090643
:10287C000502034142434445464748494A4B4C4DA7
:10288C004E4F505152535455565758595A000000F8
:10289C000003FF20412042204320442045204620B5
:1028AC0000204720482049204A204B204C20002063
:1028BC004D204E204F2050205120522000205320DC
:1028CC0054205520562057205820002059205A209B
:1028DC00002041200079646972206572726F720069
:1028EC0078646972206572726F7200534F53414560
:1028FC0054546F702053636F72653A20202020204F
:10290C0053636F72653A2000690474047F048A046F
:10291C00000A1F1F0E040000000004151F1F1F00DB
:10292C0000040E1F1F0E04000000001F1F000000FB
:00000001FF
